:100000000C945C050C9407260C94DF250C94840555
:100010000C9484050C9484050C9484050C94C223E0
:100020000C9484050C9484050C9484050C9484052C
:100030000C9484050C9484050C9484050C9484051C
:100040000C9476240C9484050C9444240C941E2463
:100050000C9484050C9484050C9484050C948405FC
:100060000C94C0240C948405000103070F1F3F7FEC
:100070000080C0E0F0F8FCFE00000000003E5B4F96
:100080005B3E3E6B4F6B3E1C3E7C3E1C183C7E3CF8
:10009000181C577D571C1C5E7F5E1C00183C180006
:1000A000FFE7C3E7FF0018241800FFE7DBE7FF3096
:1000B000483A060E2629792926407F050507407F04
:1000C00005253F5A3CE73C5A7F3E1C1C08081C1C77
:1000D0003E7F14227F22145F5F005F5F06097F016D
:1000E0007F006689956A606060606094A2FFA29458
:1000F00008047E040810207E201008082A1C080826
:100100001C2A08081E101010100C1E0C1E0C303873
:100110003E3830060E3E0E06000000000000005F74
:1001200000000007000700147F147F14242A7F2A90
:100130001223130864623649562050000807030052
:10014000001C2241000041221C002A1C7F1C2A089E
:10015000083E080800807030000808080808000001
:1001600060600020100804023E5149453E00427F75
:10017000400072494949462141494D331814127FC4
:100180001027454545393C4A494931412111090764
:100190003649494936464949291E000014000000E5
:1001A00040340000000814224114141414140041B7
:1001B00022140802015909063E415D594E7C121174
:1001C000127C7F494949363E414141227F414141AC
:1001D0003E7F494949417F090909013E4141517327
:1001E0007F0808087F00417F41002040413F017F98
:1001F000081422417F404040407F021C027F7F0460
:1002000008107F3E4141413E7F090909063E4151A8
:10021000215E7F09192946264949493203017F0198
:10022000033F4040403F1F2040201F3F4038403F99
:10023000631408146303047804036159494D4300AF
:100240007F4141410204081020004141417F0402E6
:10025000010204404040404000030708002054547D
:1002600078407F284444383844444428384444285B
:100270007F385454541800087E090218A4A49C78AE
:100280007F0804047800447D40002040403D007F0A
:100290001028440000417F40007C047804787C08EA
:1002A0000404783844444438FC18242418182424BE
:1002B00018FC7C08040408485454542404043F44A3
:1002C000243C4040207C1C2040201C3C4030403CD2
:1002D00044281028444C9090907C4464544C440032
:1002E0000836410000007700000041360800020196
:1002F0000204023C2623263C1EA1A161123A404082
:10030000207A3854545559215555794122545478FE
:1003100042215554784020545579400C1E52721297
:100320003955555559395454545939555454580020
:1003300000457C410002457D420001457C407D1224
:1003400011127DF0282528F07C5455450020545486
:100350007C547C0A097F4932494949323A44444431
:100360003A324A4848303A4141217A3A424020786C
:10037000009DA0A07D3D4242423D3D4040403D3C6D
:1003800024FF2424487E4943662B2FFC2F2BFF0992
:1003900029F620C0887E0903205454794100004486
:1003A0007D413048484A32384040227A007A0A0A71
:1003B000727D0D19317D2629292F282629292926E4
:1003C00030484D4020380808080808080808382F29
:1003D00010C8ACBA2F102834FA00007B00000814B3
:1003E0002A142222142A14085500550055AA55AA89
:1003F00055AAFF55FF55FF000000FF00101010FF29
:1004000000141414FF001010FF00FF1010F010F083
:10041000141414FC001414F700FF0000FF00FF1474
:1004200014F404FC141417101F10101F101F1414C0
:10043000141F00101010F0000000001F101010100A
:100440001F10101010F010000000FF1010101010FE
:1004500010101010FF10000000FF140000FF00FF3C
:1004600000001F10170000FC04F4141417101714D8
:1004700014F404F40000FF00F714141414141414FA
:10048000F700F7141414171410101F101F1414146D
:10049000F4141010F010F000001F101F0000001FD7
:1004A00014000000FC140000F010F01010FF10FF0A
:1004B000141414FF141010101F00000000F010FF9F
:1004C000FFFFFFFFF0F0F0F0F0FFFFFF0000000083
:1004D00000FFFF0F0F0F0F0F3844443844FC4A4A07
:1004E0004A347E02020606027E027E0263554941BC
:1004F000633844443C04407E201E2006027E0202F3
:1005000099A5E7A5991C2A492A1C4C7201724C3006
:100510004A4D4D303048784830BC625A463D3E49DD
:100520004949007E0101017E2A2A2A2A2A44445F81
:10053000444440514A444040444A51400000FF0175
:1005400003E080FF000008086B6B08361236243683
:10055000060F090F060000181800000010100030E8
:1005600040FF0101001F01011E00191D1712003C70
:100570003C3C3C0000000000005EBCE2613FDD83CB
:10058000C29C7E20A3FD1F41009D23BE46DB65F873
:100590008C11AF32CA57E974000000080002010054
:1005A000000304070000000000000000000000003D
:1005B000240027002A00DB40A4A62EAFDA0281DA4D
:1005C0001281DA02818F2000A1C8D300408DAED500
:1005D00080A8000060000000000000000000000093
:1005E000000000E00000000000000000000000002B
:1005F0000001E0000000000000000000000000001A
:1006000001F00000000000000000000000000003F6
:10061000F00000000000000000000000000007F0F3
:100620000000000000000000000000000007F800CB
:100630000000000000000000000000000FF80000B3
:100640000003C0007E000001E0007F0FF800000002
:1006500003C000FE000001E000FFEFF8000000030F
:10066000C000FE000001E000FFFFF800000003C032
:1006700000F00000000F007FFE7FC0000003C000FC
:10068000F00000000F003FFE7FF83FF1FBCFFCFEC3
:10069000F3BC3DEFE01FFE7FFF7FFBFFDFFEFEFFB1
:1006A000BC3DEFE01FC6FFFF7FFBFFDFFEFEFFBC90
:1006B0003DEFE00FE3C7FE787BC3DE1EF0FFBC3DDD
:1006C000EF0007FF87FC787BC3DE1EF0F83C3DEFB0
:1006D0000001FFFFF0007BC3C01EF0F03C3DEF00C7
:1006E00001F37FE03FFBC3CFFEF0F03C3DEF0003A2
:1006F000E33F807FFBC3DFFEF0F03C3DEF0007E708
:100700003C00787BC3DE1EF0F03C3DEF0007FFBEEF
:1007100000787BC3DE1EF0F03C3DEF0007FFFE00DB
:10072000787BC3DE1EF0F03C3DEF000FFFFE007F44
:10073000FBFFDFFEF0F03FFDEFE00FFFFF007FFB70
:10074000FFDFFEF0F03FFDEFE00FF9FF003E79F92B
:10075000CF9EF0F01F3DE7E01FF1FF00000000001A
:10076000000000000000001F80FF007FFFFFFFFF70
:10077000FFFFFFFFFFE01C007F007FFFFFFFFEB4D5
:100780006D888D18E000001F007FFFFFFFFE95AD14
:100790007DB577E000000F007FFFFFFFFEA5AD9D58
:1007A0008D19E0000006007FFFFFFFFEB5ADEDB53F
:1007B0007EE000000000000180000000000000005A
:1007C0000000038000000000000000000007C000DF
:1007D000000000000000000007C000000000000052
:1007E0000000000FC00000000000000000001FE03B
:1007F0000000000000000000001FE00000000000FA
:10080000000000003FE00000000000000000003F8A
:10081000F00000000000000000007FF00000000079
:100820000000001FF87FF0000000000000003FFE05
:100830007FF0000000000000003FFF7FF00000009C
:10084000000000001FFFFBE0000000000000000FA0
:10085000FFF9FFC00000000000000FFFF9FFF800E3
:10086000000000000007FFF1FFFF00000000000093
:1008700003FC73FFFF80000000000001FE3FFFFF4C
:1008800080000000000000FF1E0FFF0000000000BD
:1008900000007FFE1FFC000000000000003FFFFF83
:1008A000F8000000000000000FDFFFE00000000083
:1008B0000000001F19FFC0000000000000003F3CC6
:1008C000FF00000000000000007E7CF80000000037
:1008D000000000007FFE7C0000000000000000FF20
:1008E000FFFC0000000000000000FFFFFE00000011
:1008F0000000000000FFFFFE0000000000000001FB
:10090000FFEFFE0000000000000001FFCFFE00002E
:10091000000000000003FF07FE00000000000000D0
:1009200003FC07FE0000000000000003F003FE00CF
:10093000000000000000018000FE00000000000038
:10094000000000007E000000000000000000003EEB
:10095000000000000000000000000C00000000008B
:1009600000078000FC000003C0000000078001FCBD
:10097000000003C0000000078001FC000003C0006D
:100980000000078001E00000001E00000007800159
:10099000E00000001E007FE3F79FF9FDE7787BDFB2
:1009A000C0FFF7FFBFFDFDFF787BDFC0FFF7FFBF94
:1009B000FDFDFF787BDFC0F0F787BC3DE1FF787B72
:1009C000DE00F0F787BC3DE1F0787BDE0000F787C2
:1009D000803DE1E0787BDE007FF7879FFDE1E078F6
:1009E0007BDE00FFF787BFFDE1E0787BDE00F0F7FC
:1009F00087BC3DE1E0787BDE00F0F787BC3DE1E0BD
:100A0000787BDE00F0F787BC3DE1E0787BDE00FF1D
:100A1000F7FFBFFDE1E07FFBDFC0FFF7FFBFFDE1B8
:100A2000E07FFBDFC07CF3F39F3DE1E03E7BCFC086
:100A30000000000000000000000000FFFFFFFFFFBB
:100A4000FFFFFFFFFFC0FFFFFFFFFD68DB111A3153
:100A5000C0FFFFFFFFFD2B5AFB6AEFC0FFFFFFFF48
:100A6000FD4B5B3B1A33C0FFFFFFFFFD6B5BDB6A97
:100A7000FDC000000000250028002B00022200FF1E
:100A80002100010204081020408001020408102007
:100A900001020408102000000000230026002900A5
:100AA0000404040404040404020202020202030314
:100AB000030303032F266D3111241FBECFEFD8E0AF
:100AC000DEBFCDBF12E0A0E0B1E0EAE6FCE602C086
:100AD00005900D92A437B107D9F724E0A4E7B2E05E
:100AE00001C01D92AA3AB207E1F715E0CBE5D5E0C7
:100AF00004C02197FE010E944334CA35D107C9F7CB
:100B00000E94DF270C9428360C94000091E090930B
:100B10006D0380936C0310926B0310926A03089527
:100B2000909161039111FCCF91E0909361039093B8
:100B300060032FEF20935F0310925E03260F209334
:100B40005D0390935C0390915C03880F892B8093E5
:100B50005C0380915B038130F9F410925B03809118
:100B60005C038093BB008091BC0083FDF8CF85ECD3
:100B70008093BC00809161038130E1F380915E033A
:100B8000861710F460915E03ABE3B3E0EBE1F3E0B2
:100B900080E0861303C0089585EEEACF9D9191937E
:100BA0008F5FF7CF8091190390911A03891B990BDE
:100BB0000895089508950895AF92BF92CF92DF925D
:100BC000EF92FF920F931F93CF93DF936C017B0102
:100BD0008B01040F151FEB015E01AE18BF08C01793
:100BE000D10759F06991D601ED91FC910190F08106
:100BF000E02DC6010995892B79F7C501DF91CF91C9
:100C00001F910F91FF90EF90DF90CF90BF90AF902A
:100C10000895FC01538D448D252F30E0842F90E002
:100C2000821B930B541710F0CF96089501970895E7
:100C3000FC01918D828D981761F0A28DAE0FBF2FB0
:100C4000B11D5D968C91928D9F5F9F73928F90E006
:100C500008958FEF9FEF0895FC01918D828D981775
:100C600031F0828DE80FF11D858D90E008958FEFB2
:100C70009FEF0895FC01918D228D892F90E0805C7B
:100C80009F4F821B91098F73992708958EE693E0F9
:100C90000E943A0621E0892B09F420E0822F089572
:100CA00080E090E0892B29F00E94460681110C9487
:100CB00000000895FC01A48DA80FB92FB11DA35AFF
:100CC000BF4F2C91848D90E001968F739927848F6C
:100CD000A689B7892C93A089B1898C91837080648F
:100CE0008C93938D848D981306C00288F389E02D30
:100CF00080818F7D80830895EF92FF920F931F93E1
:100D0000CF93DF93EC0181E0888F9B8D8C8D9813BE
:100D10001AC0E889F989808185FF15C09FB7F894CA
:100D2000EE89FF896083E889F98980818370806416
:100D300080839FBF81E090E0DF91CF911F910F9161
:100D4000FF90EF900895F62E0B8D10E00F5F1F4F70
:100D50000F731127E02E8C8D8E110CC00FB607FC7F
:100D6000FACFE889F989808185FFF5CFCE010E940D
:100D70005A06F1CFEB8DEC0FFD2FF11DE35AFF4F1B
:100D8000F0829FB7F8940B8FEA89FB89808180629B
:100D9000CFCFCF93DF93EC01888D8823B9F0AA8958
:100DA000BB89E889F9898C9185FD03C0808186FD26
:100DB0000DC00FB607FCF7CF8C9185FFF2CF808175
:100DC00085FFEDCFCE010E945A06E9CFDF91CF918A
:100DD0000895833081F028F4813099F08230A9F0B1
:100DE00008958730A9F08830C9F08430B1F480913B
:100DF00080008F7D03C0809180008F77809380007A
:100E0000089584B58F7784BD089584B58F7DFBCF19
:100E10008091B0008F778093B00008958091B000EA
:100E20008F7DF9CFCF93DF93282F30E0F901E8567B
:100E3000FA4F8491F901EE57F54FD491F901E0563C
:100E4000F54FC491CC23A1F081110E94E906EC2F4B
:100E5000F0E0EE0FFF1FEA56F54FA591B491EC912B
:100E6000ED2381E090E009F480E0DF91CF910895D7
:100E700080E090E0FACF1F93CF93DF93282F30E0EC
:100E8000F901E856FA4F8491F901EE57F54FD491E4
:100E9000F901E056F54FC491CC23A9F0162F81112A
:100EA0000E94E906EC2FF0E0EE0FFF1FEE58F54F21
:100EB000A591B4918FB7F894EC91111108C0D09519
:100EC000DE23DC938FBFDF91CF911F910895DE2B3E
:100ED000F8CF10921A031092190310926B0310921C
:100EE0006A031092610381E08093600310925B03B8
:100EF00061E082E10E943B0761E083E10E943B07E1
:100F0000E9EBF0E080818E7F808380818D7F80831C
:100F100088E48093B80085E48093BC0089ED95E077
:100F200090931803809317038AED95E0909316032E
:100F30008093150308959091100189130BC0ECE77D
:100F4000FAE0E4919FEF90931001E13049F028F02E
:100F5000E23061F060E00C943B0710926E00FACF33
:100F600090916F009D7F90936F00F4CF90917000EF
:100F70009D7F9093700091E09093B0009091B100AC
:100F8000987F94609093B1001092B300E3CFCF9319
:100F9000DF9390E0FC01EE57F54F24918056954F7A
:100FA000FC0184918823C9F090E0880F991FFC010F
:100FB000E455FA4FA591B491FC01EE58F54FC59157
:100FC000D49161110DC09FB7F8948C912095822324
:100FD0008C938881282328839FBFDF91CF91089528
:100FE000623051F49FB7F8943C91822F809583230F
:100FF0008C93E8812E2BEFCF8FB7F894EC912E2BAA
:101000002C938FBFEACF2091000190E4299F90019B
:1010100011248E50822B80937C0080917A00806412
:1010200080937A0080917A0086FDFCCF80917800D1
:101030009091790008953FB7F8948091E8029091DB
:10104000E902A091EA02B091EB0226B5A89B05C087
:101050002F3F19F00196A11DB11D3FBFBA2FA92F37
:10106000982F8827BC01CD01620F711D811D911D34
:1010700042E0660F771F881F991F4A95D1F70895A0
:101080008F929F92AF92BF92CF92DF92EF92FF9298
:101090006B017C010E941B084B015C01C114D1044F
:1010A000E104F104B9F00E941B08681979098A0962
:1010B0009B09683E73408105910580F321E0C21AC7
:1010C000D108E108F10888EE880E83E0981EA11C83
:1010D000B11CE4CFFF90EF90DF90CF90BF90AF9026
:1010E0009F908F9008952FB7F8946091E4027091CB
:1010F000E5028091E6029091E7022FBF0895DC019E
:1011000080E0615090F09D919827E92FEF70F0E01A
:10111000E858FA4F2491E92FE295EF70F0E0E85794
:10112000FA4FE491822F8E27ECCF0895DC012C91A9
:101130001196ED91FC91F8948181822B81839281AB
:10114000322F30959323928387E090E00197F1F757
:1011500081818323818383E290E00197F1F790817D
:101160007894EFECF0E03197F1F7922381E009F405
:1011700080E00895FC0190810180F281E02D292F0B
:10118000209560FF14C0F89482818223828381813C
:10119000892B8183A3E2B0E01197F1F78281982B2C
:1011A0009283789487ED90E00197F1F70895F89491
:1011B0008281822382838181892B8183AFEFB0E09A
:1011C0001197F1F78281982B928378948FE090E0C9
:1011D000EBCFDF92EF92FF920F931F93CF93DF93AA
:1011E000EC01D62EE42E08E010E0FF24F39461E039
:1011F0008D2D8F2109F460E0CE010E94BA08FF0C0A
:1012000001501109A1F7E11010C0F894E981FA81A9
:1012100091818881809589238183E981FA819281F6
:1012200088818095892382837894DF91CF911F9163
:101230000F91FF90EF90DF900895EF92FF920F9340
:101240001F93CF93DF938C017B0140E065E50E9403
:10125000E908E70188E0E80EF11C699140E0C80167
:101260000E94E908CE15DF05C1F7DF91CF911F91EC
:101270000F91FF90EF900895FC0190810180F28121
:10128000E02DF8948181292F209582238183789401
:101290003DE743E050E0315029F1DA011197F1F7D1
:1012A00080818923C1F3F8948281822382838181A2
:1012B000892B81837894ABE7B7E01197F1F7F89425
:1012C000818182238183A3E1B1E01197F1F78081CD
:1012D000982381E009F080E07894E3E6F6E0319726
:1012E000F1F7089580E00895AF92BF92CF92DF9218
:1012F000EF92FF920F931F93CF93DF938B01BC016B
:1013000080912104909122040E941D0940E06EEB1F
:1013100080912104909122040E94E908E80168016B
:1013200089E0C80ED11CA0902104B090220488E06E
:10133000E82EF12C10E001E0C5010E949608811111
:10134000102B000F81E0E81AF108B1F71993CC16C1
:10135000DD0649F780912104909122040E943C0906
:1013600091E0813009F090E0892FDF91CF911F91BA
:101370000F91FF90EF90DF90CF90BF90AF900895C6
:101380000F931F93CF93DF93CDB7DEB729970FB697
:10139000F894DEBF0FBECDBF8C01809121049091E7
:1013A00022040E943C09811102C080E01FC0BE01DE
:1013B0006F5F7F4FC8010E9474098823B1F368E012
:1013C000CE0101960E947F0899858913EECF8D8109
:1013D0008F33B9F020F48F3141F789E007C08F35A2
:1013E00021F08F3711F78CE001C08BE029960FB602
:1013F000F894DEBF0FBECDBFDF91CF911F910F914B
:1014000008958AE0F3CF0895FC016370668B8481B0
:10141000958126813781613039F0633029F09187D9
:101420008087338722870895318720879387828733
:1014300008952F923F924F925F926F927F928F9278
:101440009F92AF92BF92CF92DF92EF92FF920F9353
:101450001F93CF93DF93CDB7DEB76A970FB6F8949B
:10146000DEBF0FBECDBF9A8F898F7A8369834A0111
:10147000D22E18870F833701BC2CDC0159962D9191
:101480003C915A972115310509F015C118968D9197
:101490009C911997681779070CF0D7C11A968D910E
:1014A0009C91481759070CF0D0C14C2C512CB6E038
:1014B000CB9E600D711D11247C876B871616170655
:1014C0000CF0C3C1EA2DF0E0FA87E98793E0EE0F54
:1014D000FF1F9A95E1F7F88BEF87CF01840F951FD7
:1014E000181619060CF0B1C1A98DBA8D58968C91B9
:1014F000811104C0BFEABD1508F4D394A98DBA8D3B
:10150000ED91FC9111970284F385E02DCD010995B1
:10151000B5E0DB9EC0011124E981FA81FC83EB83F5
:10152000312C212C9C0128583F4F388F2F8B4A2D6E
:1015300050E05E8B4D8BEF89F88DE20DF31D4491E9
:101540009E828D82D12CC12C69817A81620D731D9E
:101550007A8B698B842F90E09C8B8B8BE98DFA8D35
:10156000A081B18140FF82C0F1E0BF126FC0AF1215
:101570006DC01C96ED91FC912F813885A4014C0D16
:101580005D1D69897A89898D9A8D0995EB89FC8918
:10159000F595E7954E2F5FEFC51AD50A6D817E81CF
:1015A0008D899E89680F791F7E836D8398E0C916A7
:1015B000D10481F6AFEF2A1A3A0AEB81FC81E40DDF
:1015C000F51DFC83EB83F5E02F16310409F0B3CF52
:1015D0002F81388526153705B9F0A98DBA8DED9183
:1015E000FC91B1E0BB1257C0AB1255C069817A8142
:1015F0006B5F7F4F0088F189E02D830128E030E0A8
:10160000A401898D9A8D0995A98DBA8DED91FC91D2
:1016100011970688F789E02DCD016A960FB6F894E8
:10162000DEBF0FBECDBFDF91CF911F910F91FF9015
:10163000EF90DF90CF90BF90AF909F908F907F9072
:101640006F905F904F903F902F9009941E96ED9170
:10165000FC91EF80F88409851A8592014D815E81A5
:101660006B817C81898D9A8D099590CF2F813885EA
:101670002615370509F48ACF31E0B31207C0A3124B
:1016800005C01C96ED91FC91930178CF1E96ED91CB
:10169000FC917301E0CF6B857C8564197509068424
:1016A000F785E02D73010F8518899201A401898DBA
:1016B0009A8D0995A9CFF901349694913297459165
:1016C0005491D91AB7E0DB9E400D511D1124F90148
:1016D000259134913C8B2B8BFA0125903490FA01A3
:1016E0003296749031963491398B3296649031965B
:1016F000449041E04C1518F04A1508F07FC0662D63
:10170000062C000C770B7C836B83842D042C000C3F
:10171000990B9E838D83A98DBA8DED91FC911197C4
:101720000284F385E02DCD010995512CD12CC12CDB
:10173000EA2DF0E0FA87E9872B2D30E03C872B87F4
:10174000A401440D511D47FC5A95588F4F8B698158
:101750007A81660D711D67FC7A957E876D87798920
:10176000C71608F051CF2C2D30E04D815E81420F1D
:10177000531FA985BA854A9FC0014B9F900D5A9F60
:10178000900D1124FC01E80DF91DF88BEF87852DD4
:10179000612C4F89588D420F531F5E8B4D8B671400
:1017A00008F050C044244394480E877041F4C101AE
:1017B0000196EB89FC89E20DF31DD4901C01D7FE44
:1017C00019C0A98DBA8DED91FC91662D70E0B1E044
:1017D000BB1219C0AB1217C02D853E85620F731F57
:1017E0000484F585E02D2F8138854D895E89898DAA
:1017F0009A8D0995DD0C6394842DD1CF1E821D82B4
:101800001C821B8288CF4B815C81640F751FAB8566
:10181000BC856A9FC0016B9F900D7A9F900D11242B
:1018200069817A81680F791F0684F785E02DEF8042
:10183000F88409851A859D014F855889898D9A8D6F
:101840000995D8CF570CC3948ACF6A960FB6F894EF
:10185000DEBF0FBECDBFDF91CF911F910F91FF90E3
:10186000EF90DF90CF90BF90AF909F908F907F9040
:101870006F905F904F903F902F9008958F929F921E
:10188000AF92CF92EF92FF920F931F93CF93DF937C
:10189000EC01262F898D9A8D009709F051C06A308E
:1018A000D1F41D861C868D8948E0849F9001112407
:1018B0008E859F85820F931F9F878E8781E090E0A2
:1018C000DF91CF911F910F91FF90EF90CF90AF904C
:1018D0009F908F9008956D3089F3CC88AD888F8963
:1018E0008823C1F08C859D8536E0C39E800D911DB7
:1018F0001124488559854817590764F44E855F853A
:101900001D861C8638E0A39EC0011124840F951FFC
:101910009F878E87EA88FB88088919894E855F85AD
:101920006C857D85CE010E94190A2C898C859D8548
:1019300046E0249F800D911D11249D878C87BECF8A
:101940006A3069F41D861C86FC013696E4912D8967
:101950008E859F85E29F800D911D1124ADCF6D3046
:1019600009F4ACCFFC0134963491631708F4A6CF88
:101970003196E491E61708F4A1CFFC0132968590E8
:101980009490462F431B342F47E0349F800C911CCA
:101990001124F401329634913196E4913323A9F164
:1019A000EE2399F1CC88F4013596E491AD884F8906
:1019B000442301F10E2E000CFF0BE30FF11DCE9E10
:1019C000A001CF9E500D11246C857D85460F571FB9
:1019D00068857985641775076CF44E855F851D866B
:1019E0001C86FC013696E491AE9E400D511D1124DB
:1019F0005F874E87EA88FB88088919894E855F854D
:101A00006C857D85CE010E94190AF4013496E4911B
:101A10002C898C859D85E29F800D911D11248DCF91
:101A2000682F8DE394E00C943E0C6F927F928F921E
:101A30009F92AF92BF92CF92DF92EF92FF920F935D
:101A40001F93CF93DF93EC016B015A0139014801D9
:101A5000E881F9810284F385E02D0995E881F98117
:101A60000288F389E02D87019301A501B601CE011B
:101A70000995A501480D591D41505109E881F98189
:101A80000288F389E02D9301B601CE010995E88122
:101A9000F9810088F189E02D9401A501B601CE01FC
:101AA0000995C60CD71CB60161507109E881F9810E
:101AB0000088F189E02D9401A501CE010995E88106
:101AC000F9810688F789E02DCE01DF91CF911F9132
:101AD0000F91FF90EF90DF90CF90BF90AF909F90CD
:101AE0008F907F906F9009946F927F928F929F92C8
:101AF000AF92BF92CF92DF92EF92FF920F931F931C
:101B0000CF93DF935C01EB016A0149013801870142
:101B1000DC01ED91FC916217730719F564167506E7
:101B20002CF0962D872D3A01C92ED82E9601261914
:101B300037092F5F3F4F048CF58DE02DA301BE01C7
:101B4000C5010995DF91CF911F910F91FF90EF9003
:101B5000DF90CF90BF90AF909F908F907F906F90CD
:101B600008954615570591F42617370724F0892D57
:101B70004B01C22FD82F9E01281939092F5F3F4FE3
:101B8000068CF78DE02DA601B401DACF0284F3852F
:101B9000E02D0995D501ED91FC910488F589E02DA2
:101BA00083019401A601BE01C5010995D501ED91FE
:101BB000FC910688F789E02DC501DF91CF911F9137
:101BC0000F91FF90EF90DF90CF90BF90AF909F90DC
:101BD0008F907F906F900994EF92FF920F931F93D5
:101BE000DC011A960D911C911B9718962D913C9132
:101BF0001997ED91FC9100A0F1A1E02D7B0150E03F
:101C000040E070E060E009951F910F91FF90EF9028
:101C100008954F925F926F927F928F929F92AF92B0
:101C2000BF92CF92DF92EF92FF920F931F93CF93C9
:101C3000DF936C012B015A0139014801DC01ED9160
:101C4000FC910284F385E02D0995E201640C751C7A
:101C5000D601ED91FC91C615D7055CF40088F18999
:101C6000E02D87019401A501BE01C60109952196C9
:101C7000EFCF0688F789E02DC601DF91CF911F9144
:101C80000F91FF90EF90DF90CF90BF90AF909F901B
:101C90008F907F906F905F904F9009948F929F925A
:101CA000AF92BF92CF92DF92EF92FF920F931F936A
:101CB000CF93DF93EC015B014A016901E881F9816F
:101CC0000284F385E02D099595012C0D3D1D2150D1
:101CD0003109E881F9810488F589E02D78018401D2
:101CE000A401B501CE010995E881F9810688F7893B
:101CF000E02DCE01DF91CF911F910F91FF90EF90DA
:101D0000DF90CF90BF90AF909F908F9009948F926B
:101D10009F92AF92BF92CF92DF92EF92FF920F937A
:101D20001F93CF93DF93EC015B014A0169017801B6
:101D3000E881F9810284F385E02D0995C80CD91C4E
:101D4000860101501109E881F9810488F589E02DA7
:101D50009501A401B501CE010995E881F9810688B4
:101D6000F789E02DCE01DF91CF911F910F91FF9068
:101D7000EF90DF90CF90BF90AF909F908F9009949D
:101D8000EF92FF920F931F93DC01ED91FC9100A065
:101D9000F1A1E02D09951F910F91FF90EF9008950B
:101DA0000F931F93DC01ED91FC91068CF78DE02DD4
:101DB00009951F910F9108950F931F93DC01ED91E9
:101DC000FC91048CF58DE02D09951F910F910895DC
:101DD000DC01ED91FC910084F185E02D09943F92A6
:101DE0004F925F926F927F928F929F92AF92BF922B
:101DF000CF92DF92EF92FF920F931F93CF93DF93D7
:101E00005C017B014A016901390187E0680E711CA0
:101E100093E0759467949A95E1F72B01400E511E5B
:101E200010E000E0312CD0E0C0E0CE0187709927AF
:101E3000330C892B59F4FE0183E0F595E7958A95DB
:101E4000E1F7E00FF11FE80DF91D349037FE0AC0ED
:101E500021E030E0A701B5016C0F7D1F8DE394E018
:101E60000E94E80E2196CC16DD06F9F68FEFE81AEF
:101E7000F80A060D171DE414F504A9F6DF91CF91B9
:101E80001F910F91FF90EF90DF90CF90BF90AF9098
:101E90009F908F907F906F905F904F903F900895AC
:101EA0002F923F924F925F926F927F928F929F926A
:101EB000AF92BF92CF92DF92EF92FF920F931F9358
:101EC000CF93DF9300D000D000D0CDB7DEB73C0178
:101ED0006A013E832D83FC82EB825801A41AB50A65
:101EE000B7FE03C0B194A194B1088D809E80861A7C
:101EF000970A97FE03C09194819491088A149B04D9
:101F00005CF0902F812F0D811E819D838E839C2DEF
:101F10008D2D6B01692F782F0C151D055CF09D81AF
:101F20008E817E836D83692F782F902F812F86017C
:101F3000C92ED82E1601201A310A2B012D813E817F
:101F4000421A530A57FE03C051944194510871013B
:101F500037FE03C03FEFE31AF30AF594E7948D814F
:101F60009E81861797075CF5A1E0B0E0BA83A9834C
:101F7000C016D1064CF1D301ED91FC910484F58596
:101F8000E02D2B813C81A8016D817E818A149B0408
:101F90001CF04D815E81B801C3010995E418F50874
:101FA000F7FE0AC02D813E8189819A81280F391F51
:101FB0003E832D83E20CF31C0F5F1F4FD9CF2FEF11
:101FC0003FEF3A832983D4CF26960FB6F894DEBF2D
:101FD0000FBECDBFDF91CF911F910F91FF90EF907A
:101FE000DF90CF90BF90AF909F908F907F906F9039
:101FF0005F904F903F902F90089585ED8093BC00A7
:102000008091BC0084FDFCCF109261030895209163
:10201000C002260F3327331F21323105ECF4209103
:102020006103FC0190E080E0243069F082E00895D3
:10203000A091C0022191AC0140565D4FA40FB52F75
:10204000B11D2C930196861798F38091C002680FFA
:102050006093C00280E0089581E00895E0911A0342
:1020600080911903E81730F4F0E0E55EFC4F8081C1
:1020700090E008958FEF9FEF089590911A0380915B
:1020800019032FEF3FEF981748F4E92FF0E0E55ED2
:10209000FC4F208130E09F5F90931A03C90108959F
:1020A000CF92DF92EF92FF920F931F93CF93DF9324
:1020B0007C01CB018A0120916D03222389F0EB0181
:1020C0006B01C40ED51ECC15DD0569F06991D701F1
:1020D000ED91FC910190F081E02DC7010995F3CFBE
:1020E000642F0E940710C801DF91CF911F910F91BB
:1020F000FF90EF90DF90CF900895CF93DF931F92E2
:10210000CDB7DEB7698320916D032223F9F02091CA
:102110006A03203258F021E030E0FC01338322834F
:1021200090E080E00F90DF91CF91089580916B0354
:10213000E82FF0E0E058FD4F998190838F5F809306
:102140006B0380936A0381E090E0ECCF61E0CE0105
:1021500001960E940710F7CF682F8BE094E00C9453
:102160007D1020916A0381E0213208F044C0809103
:1021700061038111FCCF80916C0392E09093610325
:1021800091E0909360039FEF90935F0310925E0342
:1021900020935D03A0E8B2E0EBE3F3E090E02913C5
:1021A00031C010925C0390915C03880F892B80935F
:1021B0005C0380915B03813049F510925B03809151
:1021C0005C038093BB008091BC0083FDF8CF85EC5D
:1021D0008093BC00809161038230E1F380915F03C2
:1021E0008F3FB1F080915F038032A1F080915F0357
:1021F000803391F084E010926B0310926A03109286
:102200006D0308953D9131939F5FC9CF85EEE0CF77
:1022100080E0F1CF82E0EFCF83E0EDCFCF9388E68F
:102220000E94860560E08BE094E00E947D1060E8EB
:102230008BE094E00E947D1080916303CAE06C2FD4
:102240000E9423348295807F682F690F8BE094E091
:102250000E947D10809164036C2F0E94233482952C
:10226000807F682F690F8BE094E00E947D10809141
:1022700065036C2F0E9423348295807F682F690F3D
:102280008BE094E00E947D10809166036C2F0E9489
:1022900023348295807F682F690F8BE094E00E9441
:1022A0007D10809167036C2F0E9423348295807F7C
:1022B000682F690F8BE094E00E947D108091680385
:1022C0008E516C2F0E9423348295807F682F690F76
:1022D0008BE094E00E947D108BE094E00E94B110AE
:1022E000882329F01092690380E0CF91089581E05E
:1022F0008093690388E60E94860560E08BE094E0A5
:102300000E947D10809162036C2F0E94233482957D
:10231000807F682F690F8BE094E00E947D108BE036
:1023200094E00E94B1108111DDCF81E0DECFAF9249
:10233000BF92DF92EF92FF920F931F93CF93DF93A1
:102340008B01040F151FEB015C01A61AB70A75017A
:10235000EC0EFD1ED9908091A5040E9486058F2D5C
:1023600090E00E94AC10C70199270E94AC106D2D1F
:102370008BE094E00E947D108BE094E00E94B1100D
:102380006AE070E080E090E00E944008C017D1074A
:10239000F1F6DF91CF911F910F91FF90EF90DF90B9
:1023A000BF90AF900895EF92FF920F931F93CF933A
:1023B000DF93EC01EC80FD806E157F050CF070C0A2
:1023C00057FF04C0240F351F50E040E08E819F81ED
:1023D000FA01E20FF31F8E179F071CF49C01241BC8
:1023E000350B121613060CF05BC0922F842F8695C6
:1023F000869586958E9DD0018F9DB00D11246A0F14
:102400007B1FAF8DB8A1A60FB71F477049F188E0B9
:10241000841B482F682F70E0FB01E059FF4FE491C7
:10242000281708F063C0621B71092FEF30E002C06B
:10243000359527956A95E2F7E2230130110539F0C9
:10244000B0F10230110561F58C91E82702C08C9142
:10245000E82BEC93941720F12C813D81A20FB31F40
:10246000E92FE41BE83078F00230110521F58E2FBA
:102470009C9190959C932C813D81A20FB31F885015
:102480008830B0F7E770EE2359F0F0E0E859FF4FDD
:10249000E49101301105F9F010F10230110519F144
:1024A000DF91CF911F910F91FF90EF900895E095EC
:1024B0008C91E823CECF81E00115110509F480E06D
:1024C00081959E2F8C932C813D81A20FB31F985034
:1024D0009830C0F7D7CF8C91E82BEC93E1CFE09503
:1024E0008C91E823FACF8C91E827F7CF01301105C2
:1024F00009F4ADCFE0F20230110509F4A5CFAE0D1D
:10250000BF1DAECF0F931F93CF93DF9377FF04C010
:10251000260F371F70E060E0DC011496CD91DC914E
:10252000FB01E20FF31FCE17DF071CF49E01261BF1
:10253000370B121613064CF5FA0157FD3796A3E038
:10254000F595E795AA95E1F7EC9FD001ED9FB00DC9
:10255000FC9FB00D11246A0F7B1FDC015F96ED918B
:10256000FC91E60FF71F4770552781E090E001C00E
:10257000880F4A95EAF7482F0130110559F0A8F065
:102580002E0F3F1F02301105E1F0DF91CF911F9117
:102590000F9108952E0F3F1FE217F307B1F38191BA
:1025A000DF011197842B8C93F7CF80952E0F3F1F5F
:1025B000E217F30751F39191DF01119798239C9350
:1025C000F7CFE217F30709F38191DF011197842711
:1025D0008C93F7CF0F931F93FA01DC0156964C9121
:1025E00056974230E9F04330A1F1413061F514963D
:1025F0004D915C91DA01AE1BBF0BFD01E21BF30BA9
:1026000077FD0BC0DC0116964D915C916417750740
:1026100024F4AB01BF010E9482121F910F91089513
:1026200014964D915C91DA01A61BB70BBD01615068
:102630007109DC0116964D915C91DA01AE1BBF0B5E
:10264000FD01E21BF30B77FDE8CFAF010E94D31130
:10265000E4CF16964D915C91DA01A61BB70BBD0134
:1026600061507109CDCF0F931F93FA01DC0156968B
:102670004C9156974230A9F0433091F1413019F511
:1026800014964D915C91DA01AE1BBF0BFD013197A1
:10269000F7FD04C0AB01BF010E94D3111F910F9140
:1026A000089514964D915C91DA01A61BB70BBD01FC
:1026B000DC0116964D915C91DA01AE1BBF0BFD015A
:1026C0003197621B730BF7FDE9CFDC0116964D9134
:1026D0005C91E417F50714F7AF010E948212DECF78
:1026E00016964D915C91DA01A61BB70BBD01621BDA
:1026F000730BCECFFC0177FD64C080859185681790
:1027000079070CF05EC057FD5CC082859385481741
:1027100059070CF056C086898230B1F0833029F118
:10272000813041F484819581841B950BAB01BC0100
:10273000615071092130310509F108F443C022309C
:10274000310509F463C0089584819581DC01A61BDD
:10275000B70BBD016150710986819781DC01A41B13
:10276000B50BAD0141505109E5CF86819781861B9C
:10277000970BBA01AC0141505109DCCFCA0157FD9A
:102780000796A3E095958795AA95E1F7A481B58171
:102790008A9F90018B9F300D9A9F300D1124620FFC
:1027A000731F078CF0A1E02DE60FF71F4770552728
:1027B00021E030E001C0220F4A95EAF78081822BA8
:1027C00080830895CA0157FD079633E09595879554
:1027D0003A95E1F7A481B5818A9F90018B9F300DD6
:1027E0009A9F300D1124620F731F078CF0A1E02D0A
:1027F000E60FF71F4770552781E090E001C0880F72
:102800004A95EAF7809590818923DACFCA0157FD6E
:10281000079623E0959587952A95E1F7A481B581E0
:102820008A9F90018B9F300D9A9F300D1124620F6B
:10283000731F078CF0A1E02DE60FF71F4770552797
:1028400021E030E001C0220F4A95EAF7808182271B
:10285000B7CF08958EBD00000DB407FEFDCF8EB535
:102860000895FF920F931F93CF93DF93F82ED92FE4
:10287000C62F80915A0490915B04892B09F447C0BC
:1028800080915E040E94860580915A0490915B04B9
:10289000DC01ED91FC910190F081E02D60E0099563
:1028A0000F2D1D2FD1E0C15080915A0490915B04EF
:1028B000CF3F31F1D03298F00E94B11080915E0488
:1028C0000E94860580915A0490915B04DC01ED9191
:1028D000FC910190F081E02D60E00995D1E08091BC
:1028E0005A0490915B04F8016491DC01ED91FC9134
:1028F0000190F081E02D0995DF5F0F5F1F4FD3CF6F
:10290000DF91CF911F910F91FF900C94B110E09146
:102910006A04F0916B049081809170048095892302
:1029200080830F2D1D2FC15008F438C0F801849109
:102930002091580430915904232B29F00E942A1425
:102940000F5F1F4FF0CF28E030E040E8E0916604D1
:10295000F091670490916E04582F5423D9F0508160
:10296000952B9083E0916804F091690490815091D7
:102970006F04952B9083E0916804F0916904508175
:1029800090916F049095952390834695215031093D
:10299000E9F6D6CF508190959523E3CFDF91CF9183
:1029A0001F910F91FF9008951F93CF93DF93EC0138
:1029B0008D8D9E8D892BF9F0162F89A10E94860599
:1029C0008D8D9E8DDC01ED91FC910190F081E02DCB
:1029D00060E009958D8D9E8DDC01ED91FC9101905B
:1029E000F081E02D612F09958D8D9E8DDF91CF9126
:1029F0001F910C94B110ADA5BEA59C918BA980959B
:102A000089238C938B8D9C8D892B31F0862FDF91C0
:102A1000CF911F910C942A1428E030E080E8A9A5FA
:102A2000BAA599A9462F4823C1F04C91942B9C93A9
:102A3000ABA5BCA59C914AA9942B9C93ABA5BCA526
:102A40004C919AA9909594239C9386952150310995
:102A500031F7DF91CF911F9108954C919095942378
:102A6000E6CF8CBD9DBD0895FF920F931F93CF932A
:102A7000DF9380915A0490915B04892B09F472C012
:102A80008CE08093B80065E08DE79AE00E943114F5
:102A90006091410461508DE394E00E94D414209130
:102AA000430430914404C901079697FD079623E03B
:102AB000959587952A95E1F720914104309142043C
:102AC000829F8001839F100D929F100D1124C09151
:102AD0005C04D0915D0480915A0490915B040C0FCA
:102AE0001D1F892B09F47CC080915E040E9486051D
:102AF00080915A0490915B04DC01ED91FC9101906E
:102B0000F081E02D60E40995FF24F39480915A044C
:102B100090915B040C171D07E1F1BFE1BF15A0F414
:102B20000E94B11080915E040E94860580915A0433
:102B300090915B04DC01ED91FC910190F081E02D1E
:102B400060E40995FF24F39480915A0490915B040A
:102B50006991DC01ED91FC910190F081E02D0995E6
:102B6000F394D4CF8091580490915904892B31F07B
:102B700080917204909173040E943115E0916C046D
:102B8000F0916D04908180917104809589238083F8
:102B90007ACF0E94B11080915A0490915B04892BE6
:102BA00009F45FC02091740430917504409176045B
:102BB0005091770460E074E284EF90E00E94A631C7
:102BC0002051310941095109569547953795279567
:102BD0002093B800DF91CF911F910F91FF9008953E
:102BE000E0916A04F0916B04808190917004892BCC
:102BF00080830C171D0779F2899120915804309138
:102C00005904232B19F00E942A14F3CF28E030E056
:102C100040E8E0916604F091670490916E04582FAB
:102C20005423D9F05081952B9083E0916804F09162
:102C30006904908150916F04952B9083E091680412
:102C4000F0916904508190916F0490959523908341
:102C5000469521503109E9F6CCCF508190959523C6
:102C6000E3CFE0916C04F0916D0480819091710448
:102C7000892B8083AFCF1F93CF93DF93EC01162F67
:102C80008D8D9E8D892B29F18CE08093B80066EAAA
:102C9000111167EACE010E94D4148D8D9E8D892B6F
:102CA00041F12FA938AD49AD5AAD60E074E284EF2F
:102CB00090E00E94A63120513109410951095695F1
:102CC0004795379527952093B800DF91CF911F91B5
:102CD00008958B8D9C8D892B21F08DA99EA90E9432
:102CE0003115EFA5F8A990818CA98095892380835F
:102CF000CECFEFA5F8A980819CA9892B8083E5CF51
:102D0000089590E080E008958093BB0084E880936C
:102D1000BC008091BC0087FFFCCF9091B900987FE8
:102D200081E0983231F0983129F0903419F080E048
:102D300008950895089584EA8093BC008091BC00B2
:102D400087FFFCCF8091B900887F19F080EC0C944C
:102D5000841680E008955F926F927F928F929F9287
:102D6000AF92BF92CF92DF92EF92FF920F931F9399
:102D7000CF93DF93CDB7DEB7582E742E652EB62EC7
:102D8000922E0E949B16852D0E9484168D2D0E94E6
:102D900084168C2D0E9484168B2D8370A82A80E0C7
:102DA00081108CE08A290E948416862D0E94841648
:102DB000872D0E9484168CE0F694E794D794C794EC
:102DC0008A95D1F78C2D807FC82E892D8F708C2904
:102DD0000E948416812F0E948416802F0E948416E0
:102DE00084E98093BC008091BC0084FDFCCFDF911E
:102DF000CF911F910F91FF90EF90DF90CF90BF90F8
:102E0000AF909F908F907F906F905F9008954F92BA
:102E10005F926F927F928F929F92AF92BF92CF926A
:102E2000DF92EF92FF920F931F93CF93C82FC09022
:102E30009C04D0909D04E0909E04F0909F04CB01F0
:102E4000BA01A70196010E94A63149015A0125E065
:102E5000F694E794D794C7942A95D1F735E09695E0
:102E60008795779567953A95D1F747E0660F771F75
:102E7000881F991F4A95D1F7A70196010E94A63194
:102E800029013A018B019C01B501A4015527662750
:102E90007727E7E0440F551F661F771FEA95D1F7A4
:102EA000525061097109440D551D661D771D812C15
:102EB000A12C8C2F0E94AB16CF911F910F91FF90E8
:102EC000EF90DF90CF90BF90AF909F908F907F90CA
:102ED0006F905F904F9008958F92AF92CF92DF9254
:102EE000EF92FF920F931F938824839444305105EF
:102EF0006105710509F0812C4450510961097E4F2B
:102F000097E0440F551F661F771F9A95D1F7A22EA1
:102F1000C12CD12C7601C39400E010E098010E94EE
:102F2000AB161F910F91FF90EF90DF90CF90AF9075
:102F30008F900895CF93DF93D82FC62F0E949B16B2
:102F40008D2F0E9484168C2F0E94841684E9809312
:102F5000BC008091BC0084FDFCCFDF91CF9108952F
:102F6000CF93C82F60E880E18C0F0E949A17EC2F56
:102F7000F0E0EE0FFF1FEC57FB4F11821082CF9154
:102F800008952F923F924F925F926F927F928F920D
:102F90009F92AF92BF92CF92DF92EF92FF920F93E8
:102FA0001F93CF93DF9300D000D01F92CDB7DEB731
:102FB00089838091940490919504A0919604B09196
:102FC0009704892B8A2B8B2B19F481E00E94B01770
:102FD0008091980490919904A0919A04B0919B04D7
:102FE000892B8A2B8B2B19F482E00E94B01740901A
:102FF0009404509095046090960470909704411446
:1030000051046104710409F47FC12981222309F468
:10301000A5C0C0908604D0908704F12CE12C40918B
:103020008B044983A3019201C701B6010E941334A6
:103030009B01AC018981E82FF0E0EE5BFE4FA0819F
:10304000B0E00E949B314B015C01DC01CB01805858
:103050009545A84CB0428130924CAB4EBB4008F431
:1030600046C06091250170912601809127019091C1
:103070002801A30192010E94A63169017A0181E031
:1030800044E0C416D104E104F10408F489C086E0E8
:10309000C816D104E104F10408F49BC019829DE232
:1030A000C91691E0D906E104F10440F029812F5FAF
:1030B0002983F694E794D794C794F1CF49814111BD
:1030C00003C0E894C0F81982A3019201C701B601B8
:1030D0000E9413349B01AC018981E82FF0E0EE5B84
:1030E000FE4FA081B0E00E949B314B015C01B50115
:1030F000A40182E20E9407178091860490918704C0
:10310000B0E0A0E08C159D05AE05BF0529F48091C7
:103110008B0499818917D1F029812295207FB701ED
:10312000A60182E30E946C1760918E046C6681E1B7
:103130000E949A17D0928704C09286042981209316
:103140008B048091A40480688093A4048092A004DE
:103150009092A104A092A204B092A304C0909804FB
:10316000D0909904E0909A04F0909B04C114D1048B
:10317000E104F10409F4B0C08090A0049090A1048F
:10318000A090A204B090A304C501B401A7019601C8
:103190000E94A631283031054105510500F582E035
:1031A0000F900F900F900F900F90DF91CF911F9184
:1031B0000F91FF90EF90DF90CF90BF90AF909F90D6
:1031C0008F907F906F905F904F903F902F900C94D6
:1031D000B01704E0C02ED12CE12CF12C72CF1D824F
:1031E000213431054105510560F08D818F5F8D835C
:1031F000CC0CDD1CEE1CFF1C56954795379527958A
:10320000EFCFC501B401A70196010E94A631298321
:103210003A834B835C832FEF3FEF4FE050E00E94F7
:10322000503456016701E12CF12C00E010E00E94BF
:103230007D3429013A019D819295907F9D83C12C17
:10324000D12C7601C394411451046104710431F00E
:10325000CC24CA94DC2CFFE0EF2EF12CC301B20188
:1032600027E0660F771F881F991F2A95D1F7A701BE
:1032700096010E94A63149015A018B019C014981A6
:103280005A816B817C81552766277727E7E0440FB9
:10329000551F661F771FEA95D1F7525061097109D2
:1032A000480D591D6A1D7B1D812CAD808AE30E944B
:1032B000AB168CE445284628472809F08CE060913D
:1032C0008F046062682B82E10E949A1781E090E08F
:1032D00090938904809388040F900F900F900F9023
:1032E0000F90DF91CF911F910F91FF90EF90DF90A2
:1032F000CF90BF90AF909F908F907F906F905F9096
:103300004F903F902F90089580909804909099044A
:10331000A0909A04B0909B0481149104A104B1047C
:10332000D9F2C0908804D0908904F12CE12C20912E
:103330008C042983A5019401C701B6010E941334AE
:103340009B01AC018981E82FF0E0EE5BFE4FA0818C
:10335000B0E00E949B318B019C0100581545284C20
:1033600030420130124C2B4E3B4008F443C0609178
:103370002501709126018091270190912801A501D6
:1033800094010E94A63169017A0184E0C816D10433
:10339000E104F10408F403CF96E0C916D104E10476
:1033A000F10408F458C019822DE2C21621E0D206B9
:1033B000E104F10440F049814F5F4983F694E794BA
:1033C000D794C794F1CF8981811103C0E894C0F8E4
:1033D0001982A5019401C701B6010E9413349B0113
:1033E000AC019981E92FF0E0EE5BFE4FA081B0E0E7
:1033F0000E949B31AB01BC0182E20E9407178091C1
:10340000880490918904B0E0A0E08C159D05AE057C
:10341000BF0531F480918C042981821709F45CCFB7
:1034200029812295207FB701A6018AE30E946C17AB
:1034300060918F046C6682E10E949A17D092890491
:10344000C0928804498140938C048091A4048068D0
:103450008093A40441CF84E0C82ED12CE12CF12C20
:10346000B5CF4F925F926F927F92AF92BF92CF9201
:10347000DF92EF92FF920F931F93CF93DF93D82F9A
:10348000082F10E0F801EE0FFF1FEE0FFF1FE057AF
:10349000FB4F40805180628073804114510461046D
:1034A000710489F48D2FDF91CF911F910F91FF90BF
:1034B000EF90DF90CF90BF90AF907F906F905F9034
:1034C0004F900C94B0175801AA0CBB1CF501EC5797
:1034D000FB4FC080D180F12CE12C0C571B4FF80121
:1034E000C681A3019201C701B6010E9413349B015A
:1034F000AC01EC2FF0E0EE5BFE4FA081B0E00E944B
:103500009B319B01AC0120583545484C504221303D
:10351000324C4B4E5B4008F43FC0609125017091E6
:1035200026018091270190912801A30192010E9418
:10353000A63169017A0184E0C816D104E104F104DE
:1035400008F4B0CFE6E0CE16D104E104F10408F4AB
:1035500070C0C0E0FDE2CF16F1E0DF06E104F10447
:1035600030F0CF5FF694E794D794C794F3CFC111AE
:1035700003C0E894C0F8C0E0A3019201C701B601FE
:103580000E9413349B01AC01EC2FF0E0EE5BFE4F88
:10359000A081B0E00E949B312AE1D11122E2AB016F
:1035A000BC01822F0E940717F501EC57FB4F808169
:1035B0009181B0E0A0E08C159D05AE05BF0521F41A
:1035C000F80186818C1731F12C2F2295207FB701CD
:1035D000A6018D2F880F880F880F865D0E946C17BB
:1035E000F801618580E0D11180E26C64682B80E194
:1035F0008D0F0E949A17F501EC57FB4FD182C082C4
:10360000F801C6838091A40490E2D11190E8892B3F
:103610008093A404DF91CF911F910F91FF90EF90C1
:10362000DF90CF90BF90AF907F906F905F904F9062
:10363000089584E0C82ED12CE12CF12C9ACFFF9272
:103640000F931F93CF93DF9300D0CDB7DEB7E1E1A7
:10365000F1E010E000E08191080F111D81E0E332FC
:10366000F807C9F742E150E061E171E082E090E0E3
:103670000E9497110F5F1F4F1A83098342E050E0A9
:10368000BE016F5F7F4F90E080E00E949711E9E0FC
:10369000F1E080E191E010E000E02191020F111DC6
:1036A0008E179F07D1F78091120199E0F92E8F9D17
:1036B000C001112447E050E069E071E046960E94A5
:1036C00097110F5F1F4F1A830983809112018F9DFD
:1036D000C001112442E050E0BE016F5F7F4F44966D
:1036E0000E9497110F900F90DF91CF911F910F9132
:1036F000FF90089580911E0190911F01092E000CEA
:10370000AA0BBB0B80549340A446BE4F80939C04ED
:1037100090939D04A0939E04B0939F0480E00E9428
:10372000311A82E00C94311A4F925F926F927F921D
:103730008F929F92AF92BF92CF92DF92EF92FF92C1
:103740000F931F93CF9380910A0190910B01A09149
:103750000C01B0910D01C0901C01D0901D010D2CE9
:10376000000CEE08FF084091080350910903052E54
:10377000000C660B770B8090940490909504A090B9
:103780009604B0909704C1E081149104A104B1049F
:1037900009F4C0E04090900450909104609092042D
:1037A0007090930420910901222389F1009118015E
:1037B0001091190120911A0130911B01800F911F66
:1037C000A21FB31F80589946A746BF4F8C0D9D1D61
:1037D000AE1DBF1D6C017D01C40ED51EE61EF71E79
:1037E000040F151F261F371F1092A4044016510600
:1037F0006206730689F1009390041093910420935C
:1038000092043093930480E00E94311A25C0009105
:103810001401109115012091160130911701800FAC
:10382000911FA21FB31F80589946A746BF4F8C0D0A
:103830009D1DAE1DBF1D6C017D01C40ED51EE61E73
:10384000F71E040F151F261F371F1092A40404151E
:1038500015052605370579F689288A288B2869F405
:103860008091980490919904A0919A04B0919B043E
:10387000C816D906EA06FB0699F010929404109235
:1038800095041092960410929704C0929804D092D6
:103890009904E0929A04F0929B048C2F0E94C11725
:1038A0006091A404662391F081EBCF911F910F9159
:1038B000FF90EF90DF90CF90BF90AF909F908F9050
:1038C0007F906F905F904F900C949A17CF911F91BB
:1038D0000F91FF90EF90DF90CF90BF90AF909F90AF
:1038E0008F907F906F905F904F9008958EE00E9430
:1038F00003082091220130E0DC010E9449342FEFBF
:1039000033E040E050E00E947C3120937F02089534
:1039100080E10E94030824E630E0DC010E94493483
:103920002FEF33E040E050E00E947C3120937E0294
:103930000895DC01ED91FD918081ED91FD919081E3
:10394000ED91FD916C9163708E2309F064609F236B
:1039500009F06860E6EBFCE1E60FF11D6595659501
:103960006D936D917D918D919D91099423C01AC0A5
:1039700012C016C010C01EC009C014C013C006C0BB
:1039800019C009C00DC007C00DC014C062507040FE
:10399000804090400BC0615070408040904006C015
:1039A0006E5F01C06F5F7F4F8F4F9F4F9E938E93CF
:1039B0007E936E930895BF92CF92DF92EF92FF9223
:1039C0000F931F93CF93DF93EC01B62EC72E8D85F7
:1039D000811105C0CE010E943C0981110EC01B86D9
:1039E0001D861C8680E0DF91CF911F910F91FF9083
:1039F000EF90DF90CF90BF90089540E060EFCE0150
:103A00000E94E90801E0E12CD12C11E0CE010E94D6
:103A10009608F82ECE010E94960891E0F91218C07F
:103A2000813099F51134D8F2DB86D11002C081E0E3
:103A30008D878B81882399F22396EB2DFC2DCF0166
:103A4000089629912193E817F907D9F781E0CBCFA0
:103A5000EE2DF0E0F8120FC08B851817A0F4DE01F0
:103A6000AE0FBF1F13968C91802379F4F12C19307F
:103A700008F41C87D12EEC0FFD1F8381902F9095A9
:103A8000892383830AC08113F1CFFE01EE0DF11D5E
:103A90008381802B8383FF24F3946F2DCE010E94BA
:103AA000BA081F5F000F11F4E39401E087E08E1560
:103AB00008F0ACCFB7CF4F925F926F927F928F9208
:103AC0009F92AF92BF92CF92DF92EF92FF920F93AD
:103AD0001F93CF93DF93CDB7DEB761970FB6F894FE
:103AE000DEBF0FBECDBF0E947308C0907902D09098
:103AF0007A02E0907B02F0907C026C197D098E09BD
:103B00009F09693873418105910508F458C0809177
:103B10007802811154C010921D048091210490916B
:103B200022040E943C0940E06CEC809121049091B9
:103B300022040E94E90840911B0464E4809121045E
:103B4000909122040E94E90880911D04882391F13C
:103B5000E0911C04E9500EEE12E0E33038F4F0E09E
:103B6000EE0FFF1FEE5CFE4F0081118180911E045D
:103B7000882309F47EC080911B0481117AC00E94C1
:103B800073084B015C012801110F660877088091CA
:103B90002104909122040E949608813059F00E94DD
:103BA00073086419750986099709681579058A05E6
:103BB0009B0568F381E080931D04809378020E9446
:103BC00073086C197D098E099F0961347F41810555
:103BD0009105C0F1809178028823A1F1E091210440
:103BE000F09122041386158614861286118610869B
:103BF00017821682158214821382BE01665F7F4F80
:103C000080912104909122040E94DB1C811138C014
:103C100060E070E08EEF92EC20E030E040E05FE3A7
:103C20000E94D8310E94BB3260937D020E947308CB
:103C30006093790270937A0280937B0290937C0266
:103C40001092780261960FB6F894DEBF0FBECDBF1A
:103C5000DF91CF911F910F91FF90EF90DF90CF9068
:103C6000BF90AF909F908F907F906F905F904F909C
:103C70000895B801110F880B990B0E9440089ACF44
:103C800067E0CE010A960E947F0899898913C0CF08
:103C900080912104909122040E943C09882309F418
:103CA000B7CFBE016F5F7F4FCE010A960E947409A5
:103CB000882309F4ADCF68E0CE0101960E947F0809
:103CC00099858913A5CF6A8170E0762F6627770FD3
:103CD000770F770F298158E0259F90011124262B1B
:103CE000372B8A858031D1F4688570E08F81AB01F4
:103CF000481B5109CA019695982F88279795879553
:103D00000E942F34CB014097B90153E0660F771F13
:103D10005A95E1F760789C01260F371F213854EE41
:103D200035070CF475CFB901330F880B990B0E943E
:103D3000EC3220E030E040E05CE30E94A1336CCF45
:103D40000F931F93CF93DF938091F102882359F053
:103D5000109262030E940E111092F102DF91CF9136
:103D60001F910F9108950E947308009174021091A1
:103D700075022091760230917702601B710B820BE5
:103D8000930B693E73408105910520F4012B022BB2
:103D9000032B21F70E9473086093740270937502DD
:103DA000809376029093770288E60E94860560E011
:103DB0008BE094E00E947D108BE094E00E94B110B3
:103DC000882391F01092690380916903882331F26E
:103DD000109264031092630310926203DF91CF91FB
:103DE0001F910F910C940E1181E08093690367E09D
:103DF00088E60E94900510921A0380931903873079
:103E000018F38BE094E00E943D10D82F982F9295E4
:103E10009770CAE08D2F8F709C9F800D1124809326
:103E200062038BE094E00E943D10982F92959F7062
:103E30008F709C9F800D1124809363038BE094E02E
:103E40000E943D10982F929593708F709C9F800DCB
:103E50001124809364038BE094E00E943D10982F1E
:103E600092959F708F709C9F800D112480936503A5
:103E70008BE094E00E943D10982F92959F708F7078
:103E80009C9F800D1124809366038BE094E00E9438
:103E90003D10982F92959F708F709C9F800D1124DC
:103EA000809367038BE094E00E943D10982F9F70F1
:103EB000925E82958F708C9F900D11249093680371
:103EC000D7FF4CCF81CFCF93DF93EC018091A50436
:103ED0000E9486058D2F90E00E94AC10CE0199279C
:103EE0000E94AC108BE094E00E94B11061E08091E0
:103EF000A5040E94900510921A0380931903882349
:103F000039F08BE094E00E943D10DF91CF9108954D
:103F100080E0FBCFEF92FF920F931F93CF93DF933D
:103F20008B01040F151FEB017C01E61AF70AC7018C
:103F30008C0F9D1F0E94631F8993C017D107B9F78B
:103F4000DF91CF911F910F91FF90EF900895DF9235
:103F5000EF92FF920F931F93CF93DF9300D0CDB7D3
:103F6000DEB71A8219828091120129E0829FC00176
:103F7000112442E050E0BE016F5F7F4F44960E94E3
:103F80008A1FF12CE12C10E000E089E0D82E80910E
:103F9000120197018D9D200D311D1124C9014696F6
:103FA0000E94631F080F111D3FEFE31AF30A87E019
:103FB000E816F10461F70F5F1F4F89819A81081796
:103FC0001907B1F4809112018D9DC001112447E0C1
:103FD00050E069E071E046960E948A1F0F900F90B2
:103FE000DF91CF911F910F91FF90EF90DF90089597
:103FF0000E941F1BF3CFFC0101900020E9F73197CD
:10400000AF01481B590BBC018DE394E00C94DC0517
:104010008F929F92AF92BF920F931F93CF93DF9394
:10402000CDB7DEB7A1970FB6F894DEBF0FBECDBFF8
:1040300019A2423008F44AE08E010F5D1F4F842E12
:10404000912CB12CA12CA50194010E94A631E62F40
:10405000B901CA01EA30F4F4E05DD801EE938D01B4
:10406000232B242B252B79F790E080E0109719F073
:10407000CD010E94FB1FA1960FB6F894DEBF0FBEC4
:10408000CDBFDF91CF911F910F91BF90AF909F90C7
:104090008F900895E95CE1CF682F70E090E080E0B8
:1040A0004AE00C940820CF93DF930E94FB1FEC01A1
:1040B0008AE991E00E94FB1F8C0F9D1FDF91CF9139
:1040C00008950C94FB1FCF93DF930E944C20EC01CA
:1040D0008AE991E00E94FB1F8C0F9D1FDF91CF9119
:1040E0000895CF92DF92EF92FF92CF93DF936C010E
:1040F000990FEE08FF08F7FE1DC08DE20E94100D1B
:10410000EC0166277727CB016C197D098E099F0981
:104110004AE00E940820C80FD91F8AE991E00E9456
:10412000FB1F8C0F9D1FDF91CF91FF90EF90DF90D1
:10413000CF9008954AE0C701B6010E940820EC0123
:10414000ECCF4F925F926F927F928F929F92AF923D
:10415000BF92CF92DF92EF92FF920F931F93CF9374
:104160006B017C01742EAC019B010E940E348823EC
:1041700099F08DE991E0CF911F910F91FF90EF9011
:10418000DF90CF90BF90AF909F908F907F906F9077
:104190005F904F900C94FB1F46015701E894B7F8CD
:1041A0002FEF3FEF4FE75FE7C501B4010E940E34E8
:1041B00081110DC02FEF3FEF4FE75FE7C501B4015D
:1041C0000E94443218161CF481EA91E0D4CF2FEFFC
:1041D0003FEF4FE75FE4C701B6010E949C3318161A
:1041E0001CF485EA91E0C7CF2FEF3FEF4FE75FEC7C
:1041F000C701B6010E94443287FDF3CF20E030E0D2
:10420000A901C701B6010E94443210E000E087FF17
:1042100008C08DE20E94100D8C01F7FAF094F7F8B7
:10422000F094C0E060E070E080E09FE37C1641F035
:1042300020E030E040E251E40E944932CF5FF6CF07
:10424000A70196010E94D8312B013C010E94BB328C
:104250004B015C014AE00E9408207C01E00EF11E47
:10426000CC23B1F1C501B4010E94EA329B01AC013B
:10427000C301B2010E94D7314B015C018EE20E9462
:10428000100DE80EF91EC15018F120E030E040E2B8
:1042900051E4C501B4010E94A1332B013C010E94ED
:1042A000BB324B01B12CA12C4AE0C501B4010E94E4
:1042B0000820E80EF91EC501B4010E94EA329B01F4
:1042C000AC01C301B2010E94D7314B015C01DBCFCD
:1042D000C701CF911F910F91FF90EF90DF90CF908A
:1042E000BF90AF909F908F907F906F905F904F9016
:1042F00008952091430430914404C901079697FD25
:10430000079623E0959587952A95E1F7209141043A
:1043100030914204829FA001839F500D929F500DC7
:10432000112470E060E080915C0490915D040C9435
:104330002136EF92FF920F931F930E9479211092E2
:104340004A041092490410924C0410924B0481E0EC
:1043500090E09093500480934F0490934E04809388
:104360004D0483E08093510480935204E091140340
:10437000EF3008F070C0F0E0E054FE4D0C94433490
:10438000CF217B228F22B522C922E022FB220F23DC
:1043900031234C235E23702380239023A823609134
:1043A0000A0170910B0180910C0190910D01603810
:1043B00026E9720728E98207910528F022E0209378
:1043C0005104209352040E94EA3220E030E04AE790
:1043D00054E40E94493242E00E94A1208AE991E01F
:1043E0000E94FB1F81E080935104809352048091CE
:1043F0007F02843620F489EA91E00E946120609176
:104400007F0270E090E080E00E94EC3220E030E03B
:1044100040E251E40E94493242E00E94A1208BEA2E
:1044200091E00E946120809113038823D1F08DEAEE
:1044300091E00E94612020917E0230E0EE24E3941E
:10444000F12C09E010E047E150E060E470E08DE31A
:1044500094E00E94090E1F910F91FF90EF900C9431
:10446000341586E292E00E94612080917D020E94D4
:104470004C2087EF0E94100D82EB91E00E9461209A
:10448000809164038A3020F486E292E00E946120E9
:10449000809164030E944C208091620380FF25C0BC
:1044A00085EB91E00E946120809163038A3020F4C3
:1044B00089EA91E00E946120809163030E944C2070
:1044C000809109018823A1F087EB91E00E9461208F
:1044D000809112018A3020F486E292E00E946120ED
:1044E000809112010E944C20B6CF86E292E0DACF92
:1044F0008AEB91E0EBCF809112010E94632081E072
:104500008093510480935204809114030E944C20A4
:104510008DEB91E00E94612080911301E3CFE09147
:104520001101F0E0EE0FFF1FE85CFE4F80819181EA
:104530002AE0289FB001299F700D112490E080E0AF
:104540004AE00E9408208AE991E00E94FB1F81E076
:104550008093510480935204809114030E944C2054
:104560008FEC91E00E94612076CF809120019091A4
:1045700021010E94712081E08093510480935204B4
:10458000809114030E944C2089ED91E00E945320F9
:1045900062CF80910901882381F089EE91E00E9429
:1045A000532081E08093510480935204809114033E
:1045B0000E944C2081EF91E0E9CF8DEE91E0EFCFAA
:1045C00080910E0124E6829FC00111240E94712077
:1045D00081E08093510480935204809114030E94DF
:1045E0004C2082E092E00E94612080EF0E94100D3A
:1045F0008EE092E0B7CF80910F0124E6829FC00148
:1046000011240E94712081E0809351048093520410
:10461000809114030E944C2082E192E0E4CF6091EB
:1046200014017091150180911601909117014AE0D3
:104630000E9408208AE991E00E94FB1F81E080939C
:10464000510480935204809114030E944C208EE107
:1046500092E00E94612080EF0E94100D86ED91E0B3
:1046600081CF609118017091190180911A01909188
:104670001B014AE00E9408208AE991E00E94FB1F8A
:1046800081E08093510480935204809114030E942E
:104690004C2088E292E0DDCF80911C0190911D01B9
:1046A0000E94712081E08093510480935204809194
:1046B00014030E944C2082E392E0CBCF80911E0134
:1046C00090911F010E94712081E08093510480939A
:1046D0005204809114030E944C208DE392E0B9CFE4
:1046E000809122010E94632081E080935104809395
:1046F0005204809114030E944C2089E492E032CF4E
:10470000809113010E94632081E080935104809383
:104710005204809114030E944C2084E592E022CF41
:10472000809164038A3020F489EA91E00E9461203C
:10473000809164030E94632081E080935104809300
:104740005204809114030E944C2084E692E00ACF28
:10475000809163038A3020F489EA91E00E9461200D
:10476000809163030E94632081E0809351048093D1
:104770005204809114030E944C208BE692E0F2CE0A
:104780000E941C361F920F920FB60F9211242F9386
:104790003F934F935F936F937F938F939F93AF93C9
:1047A000BF93EF93FF938091FC029091FD02A09143
:1047B000FE02B091FF02892B8A2B8B2BD1F19091B5
:1047C000F702E091F802F091F90280818927808355
:1047D0008091FC029091FD02A091FE02B091FF0237
:1047E000181619061A061B069CF48091FC0290917B
:1047F000FD02A091FE02B091FF020197A109B1094B
:104800008093FC029093FD02A093FE02B093FF02FE
:10481000FF91EF91BF91AF919F918F917F916F9198
:104820005F914F913F912F910F900FBE0F901F906E
:104830001895809110010E949B07EACF1F920F925A
:104840000FB60F9211242F933F934F935F936F9363
:104850007F938F939F93AF93BF93EF93FF938EE6D6
:1048600093E00E945A06FF91EF91BF91AF919F9103
:104870008F917F916F915F914F913F912F910F9009
:104880000FBE0F901F9018951F920F920FB60F92A8
:1048900011242F938F939F93EF93FF93E0917E03C7
:1048A000F0917F038081E0918403F091850382FD84
:1048B0001BC09081809187038F5F8F732091880345
:1048C000821741F0E0918703F0E0E259FC4F958FA9
:1048D00080938703FF91EF919F918F912F910F907C
:1048E0000FBE0F901F9018958081F4CF1F920F92EA
:1048F0000FB60F9211242F933F938F939F93AF93F3
:10490000BF938091E4029091E502A091E602B091FC
:10491000E7023091E30223E0230F2D3758F501968B
:10492000A11DB11D2093E3028093E4029093E50260
:10493000A093E602B093E7028091E8029091E90229
:10494000A091EA02B091EB020196A11DB11D8093E6
:10495000E8029093E902A093EA02B093EB02BF91C0
:10496000AF919F918F913F912F910F900FBE0F901C
:104970001F90189526E8230F0296A11DB11DD2CFD6
:104980001F920F920FB60F9211242F933F934F93C4
:104990005F936F937F938F939F93AF93BF93EF93A7
:1049A000FF938091B900887F803609F44AC0F0F502
:1049B000883209F4A7C018F5803109F49BC0B8F417
:1049C000882309F4F9C0883009F494C0FF91EF916D
:1049D000BF91AF919F918F917F916F915F914F9117
:1049E0003F912F910F900FBE0F901F901895883117
:1049F00009F488C0803251F780935F0314C080347B
:104A000009F49DC040F48033B9F38833F9F68093FC
:104A10005F0385ECB0C0803509F485C0883509F4A2
:104A200096C0883499F60E94FD0FD0CF883909F4DA
:104A30008CC038F5883729F050F4883611F080376B
:104A400029F683E0809361031092E20257C0883810
:104A500009F47BC0803919F0803809F0B7CF809114
:104A6000E202803208F071C0E091E20281E08E0F34
:104A70008093E2028091BB00F0E0EE53FD4F808313
:104A80003DC0803B39F0E0F4803A09F479C0883ABF
:104A900009F09CCF84E0809361031092C1021092D0
:104AA000C002E0911703F091180309958091C002AC
:104AB00081110FC081E08093C0021092A00209C052
:104AC000803C09F4A6CF883C09F4A3CF883B09F0C9
:104AD0007DCFE091C10281E08E0F8093C102F0E0B2
:104AE000E056FD4F80818093BB009091C102809180
:104AF000C00229C080915C038093BB0085EC809349
:104B0000BC0064CF90915E0380915D03981758F5C7
:104B1000E0915E0381E08E0F80935E03F0E0E55C40
:104B2000FC4F8081E9CFE0915E0381E08E0F80939E
:104B30005E038091BB00F0E0E55CFC4F80839091C8
:104B40005E0380915D039817C8F285E8D8CFE091A5
:104B50005E0381E08E0F80935E038091BB00F0E0E6
:104B6000E55CFC4F80838091600381115CCF81E024
:104B700080935B0384EA8093BC001092610326CF8C
:104B800085EC8093BC00109261038091E202803238
:104B900030F4E091E202F0E0EE53FD4F10826091BC
:104BA000E20270E0E0911503F091160382EC92E0CE
:104BB00009951092E2020ACF10925F0334CF1F9240
:104BC0000F920FB60F9211242F933F934F935F9341
:104BD0006F937F938F939F93AF93BF93EF93FF93C5
:104BE0008091190490911A040E94991CFF91EF91F1
:104BF000BF91AF919F918F917F916F915F914F91F5
:104C00003F912F910F900FBE0F901F9018951F92FC
:104C10000F920FB60F9211242F933F934F935F93F0
:104C20006F937F938F939F93AF93BF93EF93FF9374
:104C300080911704909118040E94991CFF91EF91A4
:104C4000BF91AF919F918F917F916F915F914F91A4
:104C50003F912F910F900FBE0F901F901895CF92FC
:104C6000DF92EF92FF92CF93DF9310927103109235
:104C7000700398EEC92E93E0D92EE12CF12CC0924E
:104C80007203D0927303E0927403F09275038EE482
:104C900091E090936F0380936E0385EC90E0909386
:104CA0007B0380937A0384EC90E090937D03809360
:104CB0007C0380EC90E090937F0380937E0381ECF3
:104CC00090E0909381038093800382EC90E0909336
:104CD00083038093820386EC90E090938503809316
:104CE0008403109287031092880310928903109214
:104CF0008A030E94690710920E0410920D04C0925C
:104D00000F04D0921004E0921104F092120480E695
:104D100091E090930C0480930B0480E58093A504AC
:104D200010928504109284041092870410928604D5
:104D3000109289041092880410928A0410928B04B5
:104D400010928C0480912F0190913001A09131013B
:104D500080938D0490938E04A0938F0410929004FE
:104D60001092910410929204109293041092940461
:104D70001092950410929604109297041092980441
:104D80001092990410929A0410929B0480E892EB7E
:104D9000A6EEBEE080939C0490939D04A0939E0495
:104DA000B0939F0462E083E00E94C70762E082E064
:104DB0000E94C707E3EAFAE0E491F0E0EE0FFF1F7C
:104DC000EA56F54FA591B491B0937904A093780475
:104DD000E5E8FAE0449140937C04E2EAFAE0E491E9
:104DE000F0E0EE0FFF1FEA56F54FC591D491D09336
:104DF0007B04C0937A04E4E8FAE0E491E0937D0454
:104E000010927F0410928004109281041092820408
:104E10002BE33FE1C9010197F1F79C91842F89238E
:104E200091E009F490E08881E82309F0926028E796
:104E300034E090937E0430931A04209319048091F7
:104E40006900837F846080936900E99AC1E0C09320
:104E500083043093180420931704809169008C7F99
:104E6000816080936900E89A82E0809383041092C5
:104E7000400410923F0420E830E030934204209335
:104E8000410480E290E09093440480934304309383
:104E9000460420934504909348048093470410925D
:104EA000530410924A041092490410924C04109238
:104EB0004B04C0935204C09351048FEF9FEF909323
:104EC000500480934F0490934E0480934D04C093FC
:104ED000540410925504109257041092560482E71D
:104EE00091E090933E0480933D048BE094E0909396
:104EF0005B0480935A0410925D0410925C048FEF5F
:104F000080936104809362048093630480936404BB
:104F100084E08093650480E58093720410927304AA
:104F2000109259041092580460E08AE00E94C7076A
:104F3000ECE8FAE0E491E0932F04EAEAFAE0E49185
:104F4000F0E0EE0FFF1FEA56F54F85919491909394
:104F500031048093300410923A0410923C04109271
:104F60003B041092390410923804109237041092C6
:104F700036041092350410923404109233041092C7
:104F800032048FE294E090932204809321041092E3
:104F90001F041092200410921B0489E080931C04CB
:104FA000C0931D04C0931E0410922E0410922D0471
:104FB000DF91CF91FF90EF90DF90CF900895CF9346
:104FC000DF93CDB7DEB760970FB6F894DEBF0FBEA4
:104FD000CDBF789484B5826084BD84B5816084BD82
:104FE00085B5826085BD85B5816085BD80916E0087
:104FF000816080936E0010928100809181008260B8
:1050000080938100809181008160809381008091F4
:1050100080008160809380008091B10084608093E3
:10502000B1008091B00081608093B00080917A00DF
:10503000846080937A0080917A00826080937A0005
:1050400080917A00816080937A0080917A008068F4
:1050500080937A001092C100E0917E03F0917F036B
:1050600082E08083E0917E03F0917F031082E091E3
:105070007A03F0917B031082E0917C03F0917D0331
:1050800080E1808310928603E0918203F091830394
:1050900086E08083E0918003F091810380818061CC
:1050A0008083E0918003F091810380818860808318
:1050B000E0918003F0918103808180688083E0919A
:1050C0008003F091810380818F7D808360E084E0A4
:1050D0000E94C70760E080E10E94C70761E089E0A5
:1050E0000E94C70761E084E00E943B0783E0809351
:1050F000000180915C0490915D04892B11F10E9464
:10510000792120914304309144048091410490918D
:105110004204213231050CF0B5C0B9016052710969
:1051200077FF02C06F5F7F4F759567958357910931
:1051300097FD019600E210E023E730E042ED55E0F4
:10514000B4C02091430430914404C901079697FDEF
:105150000796B3E095958795BA95E1F720914104BC
:1051600030914204AC01429FC001439F900D529F79
:10517000900D11240E94F73490935D0480935C0499
:10518000892B09F0BCCF0E9479210E943415E0914F
:105190002104F09122041386158614861286118646
:1051A00010861782168215821482138210921F04B1
:1051B0001092200401E0BE016F5F7F4F80912104B7
:1051C000909122040E94DB1C882309F432C267E01C
:1051D000CE0101960E947F0898858913ECCF8091BB
:1051E0001B04811128C080912104909122040E9407
:1051F0003C09BE016F5F7F4F809121049091220492
:105200000E941D0940E064EB8091210490912204EA
:105210000E94E90880912104909122040E9496083E
:10522000182F80912104909122040E943C091111B1
:1052300002C000931B0410911C048981803111F479
:105240000C946831CE0101960E94C009811708F0C4
:10525000DFC180911C0480931C0480911F048F5F28
:1052600080931F048981883239F008F0DBC18031D6
:1052700019F0823209F09FCF809120048F5F8093D4
:10528000200499CFB9016054710977FF02C06F5FA4
:105290007F4F759567958255910997FD019600E4BA
:1052A00010E022E530E042EB57E0959587950E94AB
:1052B000EF0E82E080935F0480915A0490915B042A
:1052C000892B09F49AC08CE380935E040E946907DD
:1052D0008091650487FD1EC061E00E94C70761E000
:1052E000809165040E943B0761E070E080E090E0FF
:1052F0000E94400860E0809165040E943B076AE0DC
:1053000070E080E090E00E94400861E080916504D8
:105310000E943B0780915A0490915B04892B09F409
:105320002BC18CE08093B80064E08EEC95E00E9485
:1053300031146091430461508DE394E00E94D414D1
:1053400064E08AEC95E00E94311480915F0460E192
:10535000813009F064E18DE394E00E94D41464E0AC
:1053600086EC95E00E9431148091410490914204B2
:105370008038910509F02BC1809143049091440439
:105380008032910509F00FC164E082EC95E00E9443
:10539000311469ED8DE394E00E94D41480915F0490
:1053A00062E2813009F061EF8DE394E00E94D41451
:1053B00066E086EB95E00E94311480915A0490914A
:1053C0005B04892B09F41AC120917404309175048F
:1053D000409176045091770460E074E284EF90E0AD
:1053E0000E94A6312051310941095109569547952E
:1053F000379527952093B800C6CE61E0809163046D
:105400000E94C70761E0809164040E94C7078091F1
:105410006304082E000C990BFC01E056F54FE49153
:10542000F0E0EE0FFF1FEE58F54F259134913093C9
:105430006B0420936A04FC01EE57F54FE491E0936E
:10544000700480916404082E000C990BFC01E05656
:10545000F54FE491F0E0EE0FFF1FEE58F54FA591E8
:10546000B491B0936D04A0936C04FC01EE57F54F1A
:10547000E491E09371048C91E82BEC9380915804B3
:1054800090915904892B09F434C01FB7F894809186
:10549000EC02811127C0EAEAFAE08491ECE8FAE034
:1054A0009491E82FF0E0EE0FFF1FE455FA4FA5911D
:1054B000B491EC91E92321F461E08AE00E943B077A
:1054C00061E08AE00E94C7078CB580618CBD8CB515
:1054D00080648CBD61E08DE00E94C70761E08BE0D5
:1054E0000E94C7078091EC028F5F8093EC021FBF80
:1054F000EFCE61E0809161040E94C70761E0809176
:1055000062040E94C70780916104082E000C990B69
:10551000FC01E056F54FE491F0E0EE0FFF1FEE586E
:10552000F54F259134913093670420936604FC0174
:10553000EE57F54FE491E0936E0480916204082EDB
:10554000000C990BFC01E056F54FE491F0E0EE0FF2
:10555000FF1FEE58F54FA591B491B0936904A09345
:105560006804FC01EE57F54FE491E0936F048C91D1
:10557000E095E823EC93ACCE8091580490915904C7
:10558000892B31F080917204909173040E9431153F
:10559000E0916C04F0916D0490818091710480958C
:1055A00089238083C1CE8034910509F0F2CE63E077
:1055B0008FEB95E00E94311480915F046FE9813098
:1055C00009F06FEC8DE394E00E94D414E2CE8036B3
:1055D000910509F0DECE80914304909144044097F8
:1055E00009F0D7CE63E08CEB95E00E9431148091F6
:1055F0005F0460E1813031F36FEAE4CFE0916C0445
:10560000F0916D04808190917104892B8083BBCDD2
:105610008981803111F48CE01ECECE0101960E946A
:10562000C00919CE8B3309F427CE823409F0C3CDDB
:1056300023CE1A82198242E050E0BE016F5F7F4F95
:1056400090E080E00E948A1F62E0E62EF12C10E0DC
:1056500000E0C7010E94631F080F111D5FEFE51AEC
:10566000F50A84E1E816F104A1F70F5F1F4F898165
:105670009A810817190709F0C2C042E150E061E1C0
:1056800071E082E090E00E948A1F0E94A71F1092A2
:105690008D0410928E0410928F0460E880E10E94C5
:1056A0009A1760E881E10E949A1760E882E10E94FF
:1056B0009A1780E896E3AEEBB6E2809325019093CB
:1056C0002601A0932701B093280162E987EB0E948D
:1056D0009A170E947A1B0E94941B0E94761C0E94BB
:1056E000881C0E945B1D0E94A01E0E9479211092BE
:1056F0004A041092490410924C0410924B0481E029
:1057000090E09093500480934F0490934E048093C4
:105710004D0483E0809351048093520481E091E032
:105720000E9453200E94341568EE73E080E090E000
:105730000E9440080E9499215BE8252E5AE0352EF0
:1057400084E00E94120720910801892B09F04AC5C4
:10575000222361F0109208010E9473086093ED0209
:105760007093EE028093EF029093F0028091830495
:10577000823008F05BC0F89488E794E00E94991C9E
:1057800060917F04709180048091810490918204E3
:10579000789424E030E040E050E00E947C316901E0
:1057A0007A018090F3029090F402A090F502B090FC
:1057B000F602C814D904EA04FB0409F443C1E091D9
:1057C00014038FEF8E0F843018F481E08093F2027F
:1057D000EF3008F020C1F0E0E051F44D0C94433478
:1057E000182CD72CF72C682DAC2DB32DD72DFB2DD5
:1057F000662ED12E002F482F6D2F8B2FAB2F0E949E
:105800001F1B43CF109214030DC58F5F853059F0D5
:1058100080931403809114038F3008F41CC585E035
:105820008093140318C510921403F4CFF894A8CFF2
:1058300040900A0150900B0160900C0170900D0196
:10584000A0910F01B0E020EA36E841E050E00E946C
:105850009B316D877E878F87988BA0910E01B0E07A
:105860000E949B3169877A878B879C878C149D0463
:10587000AE04BF040CF06AC02D853E854F85588963
:10588000241535054605570560F1E0911101F0E05A
:10589000EE0FFF1FE85CFE4F808191812AE0289F78
:1058A0004001299F900C1124B12CA12CC301B201FD
:1058B000A50194010E94A631480C591C6A1C7B1C4E
:1058C000611571058105910521F0461A570A680A8C
:1058D000790A40920A0150920B0160920C01709279
:1058E0000D0180910A0190910B01A0910C01B091E2
:1058F0000D0129853A854B855C8582179307A4079E
:10590000B50740F420930A0130930B0140930C013A
:1059100050930D0180910A0190910B01A0910C010F
:10592000B0910D012D853E854F855889281739077F
:105930004A075B0740F420930A0130930B01409320
:105940000C0150930D010E94941B65C0C814D9042A
:10595000EA04FB0434F689859A85AB85BC85481634
:1059600059066A067B0608F4BCCFE0911101F0E00D
:10597000EE0FFF1FE85CFE4F808191812AE0289F97
:105980004001299F900C1124B12CA12CC301B2011C
:10599000A50194010E94A63161157105810591054B
:1059A00009F093CF481859086A087B0892CF809174
:1059B0001201909113018C149D04AE04BF0474F481
:1059C000891718F48F5F8093120180911201981744
:1059D00010F4909312010E94A71FB5CFC814D904E8
:1059E000EA04FB0494F7882381F38150ECCF809183
:1059F00011018C149D04AE04BF040CF05EC0843011
:105A000018F48F5F8093110180911101853018F097
:105A100084E0809311010E94730860930B037093DC
:105A20000C0380930D0390930E0381E080930A038F
:105A30000E949921C092F302D092F402E092F50202
:105A4000F092F60281E10E94120720911303892B44
:105A500009F40FC4211149C381E08093130380919D
:105A60001001893009F093C2ECE7FAE0149117FDB8
:105A700036C361E089E00E94C707112309F4F9C227
:105A8000123009F00DC38091B100887F836080934C
:105A9000B10089EF8093B3008FEF9FEFDC0180931B
:105AA000FC029093FD02A093FE02B093FF0280914E
:105AB000700082608093700012C3C814D904EA0495
:105AC000FB040CF0A1CF882309F49ECF81509ACF1C
:105AD00020912001309121018C149D04AE04BF045B
